S02B0000443A5C4D61696E5C576F726B5C534F555243455C574F524B494E475C446F744E65742D4D465C4D6950
S3150802000000C00020F9010208FD630308A162030883
S31508020010FD630308FD630308FD630308000000008F
S31508020020000000000000000000000000FD63030855
S31508020030FD6303080000000099630308FD630308D3
S31508020040FD6303080D64030871640308C9640308A1
S315080200502165030885650308C9770308E965030866
S315080200604166030899660308F166030849670308A7
S31508020070A1670308F967030851680308A968030812
S315080200800169030859690308B1690308096A03087B
S31508020090616A0308B96A0308116B0308696B0308E6
S315080200A0C16B0308196C0308716C0308C96C030851
S315080200B021780308216D0308796D0308D16D0308B9
S315080200C0296E0308816E0308D96E0308316F030887
S315080200D0896F0308E16F03083970030891700308F2
S315080200E0E97003084171030899710308F17103085D
S315080200F049720308A1720308F972030851730308C7
S31508020100A97303080174030859740308B174030830
S315080201100975030861750308B9750308117603089A
S3150802012069760308C1760308197703087177030805
S3150802013000000000000000000000000000000000AF
S31508020140000000000000000000000000000000009F
S31508020150000000000000000000000000000000008F
S31508020160000000000000000000000000000000007F
S31508020170000000000000000000000000000000006F
S31508020180000000000000000000000000000000005F
S31508020190000000000000000000000000000000004F
S315080201A0000000000000000000000000000000003F
S315080201B0000000000000000000000000000000002F
S315080201C0000000000000000000000000000000001F
S315080201D0000000000000000000000000000000000F
S315080201E05FF8E0F1EFBEADDEF9010208F4BE0908D8
S315080201F000000208E4BE0908044880F3088800F0F3
S3150802020029F90CF0C3FC0FF085FB704700C00020EB
S3150802021080B489B000AFF860B9607A60BA68FB68E2
S315080202209A423DD07B6803F003037B617B6823F027
S3150802023003037B600FE0FB681A68BB681A60BB6839
S3150802024003F10403BB60FB6803F10403FB607B68EC
S31508020250A3F104037B607B68002B0CBF00230123F8
S31508020260DBB2002BE7D1BB68BB61FB68FB610FE021
S31508020270FB691A78BB691A70BB6903F10103BB6192
S31508020280FB6903F10103FB617B6903F1FF337B61C0
S315080202907B69002BD4BF00230123DBB2002BE7D1F5
S315080202A007F12407BD4680BC704700BF80B485B0FD
S315080202B000AF786039603B6803F00303BB603B68B4
S315080202C023F003033B600BE07B684FF000021A60E1
S315080202D07B6803F104037B603B68A3F104033B607C
S315080202E03B68002B0CBF00230123DBB2002BEBD1AA
S315080202F07B68FB600BE0FB684FF000021A70FB6834
S3150802030003F10103FB60BB6803F1FF33BB60BB6803
S31508020310002BD4BF00230123DBB2002BEBD107F15C
S315080203201407BD4680BC704780B588B000AF4CF252
S31508020330D003C0F609033B6040F20003C2F2000391
S315080203407B6040F20003C0F20003BB60386879683C
S31508020350BA68FFF75DFF4CF2D003C0F60903FB60EB
S3150802036040F20003C2F200033B614AF26C53C0F248
S3150802037000037B61F86839697A69FFF749FF40F635
S315080203805053C2F20003BB6149F61C03C0F20003D4
S31508020390FB61B869F969FFF789FF07F12007BD46CE
S315080203A080BD00BF80B582B000AF07F104031846CE
S315080203B04FF000014FF0040259F01EF94FF0030006
S315080203C04FF000010AF0FCFB4FF002004FF000016B
S315080203D00AF0F6FB4FF004004FF000010AF0F0FBBA
S315080203E04FF03203BB804FF00003BB714FF001039D
S315080203F0FB71786800F0C8FB4FF6A060C0F60700EC
S315080204000FF048FB07F10807BD4680BD80B586B0E8
S3150802041004AF78604FF6AC60C0F607000EF0F8FF3E
S3150802042002464FF0000300934FF6AC63C0F607038B
S315080204300193029278684FF004014FF003024FF0DD
S31508020440000302F085FC4FF00103184607F108077E
S31508020450BD4680BD80B400AF4EF60853CEF2000307
S315080204604EF60852CEF20002126842F400321A60C0
S31508020470BD4680BC704700BF80B582B000AF7860C9
S315080204807B689B689B687A68D268104698470346D9
S31508020490184607F10807BD4680BD00BF80B584B07F
S315080204A000AFF860B9607A603B60FB689B68D3F876
S315080204B00CC0FB68DB681846B9687A683B68E0478F
S315080204C00346184607F11007BD4680BD80B483B0BF
S315080204D000AF78607B685B6E184607F10C07BD466D
S315080204E080BC704780B582B000AF786039607868A2
S315080204F04FF000013A6859F07FF807F10807BD4640
S3150802050080BD00BF80B584B000AF786039607B6873
S3150802051019463A464FF00403084611461A4658F059
S3150802052099FF1BF0A3F80346FB60FB684FEAD373F7
S31508020530DBB2002B31D14FF60070C0F6070007F088
S315080205405FF8BB78002B0BD042F22833C2F20003C5
S315080205501B6843F0004242F22833C2F200031A60D3
S3150802056042F22830C2F200001BF090FA0346FB6002
S31508020570FB684FEAD373DBB2002B0ED14FF610702D
S31508020580C0F6070007F03CF801F03CF97B684FF02B
S3150802059001021A714FF00003FB60FB68184607F167
S315080205A01007BD4680BD00BF80B586B000AFF860B3
S315080205B0B9607A60B868796833F008FA03463B612D
S315080205C03B694FEAD373DBB2002B60D17B681B68A9
S315080205D09B69184628F06EF903467B617B69002BF6
S315080205E049D07B681B685B695A697B695B689A4272
S315080205F03CD04FF62470C0F6070007F001F84FF614
S315080206007070C0F6070006F0FBFF4FF6BC70C0F626
S31508020610070006F0F5FF4FF67070C0F6070006F001
S31508020620EFFF4FF67070C0F6070006F0E9FF7B6829
S315080206301B6899697B681B685B695A697B695B6891
S3150802064040F20800C0F6080006F0DAFF4FF67070AE
S31508020650C0F6070006F0D4FF4FF62470C0F607006E
S3150802066006F0CEFF4FF016433B6110E07B681B682D
S315080206707A699268DA617B681B6842F26460C2F240
S315080206800000194635F02AFE4FF000033B613B692C
S31508020690184607F11807BD4680BD00BF80B584B06D
S315080206A000AF786040F23C00C0F6080006F0A8FFEA
S315080206B078684AF21841C0F608014BF6E062C0F6BD
S315080206C0090200F0BBF80346FB60FB684FEAD373E6
S315080206D0DBB2002B35D140F24C00C0F6080006F01A
S315080206E08FFF78684FF0500100F0EAF940F2700087
S315080206F0C0F6080006F084FF42F26460C2F2000007
S3150802070036F0CEFA0346FB60FB684FEAD373DBB2D8
S31508020710002B16D142F6A820C2F2000007F074FB9D
S3150802072042F26460C2F2000036F0F0FD0346FB6056
S31508020730FB684FEAD373DBB2002B02D14FF00003FA
S31508020740FB60FB68002B06DA40F28000C0F6080060
S31508020750F96806F055FFFB68184607F11007BD460B
S3150802076080BD00BF80B58AB000AFF860B9607A6014
S315080207707B681B681A46BB681B68C3EB020303F156
S31508020780030323F00303FB61BB681B681A4607F1E0
S31508020790140107F11003084611461A4608F076FBBB
S315080207A00346002B05D07B69002B02D04FF00103CC
S315080207B001E04FF00003002B36D07B691846FFF79D
S315080207C05BFE03463B623B6A1B7803F00203002B7F
S315080207D02AD1F8694FF00C0128F010F803467B621B
S315080207E07B6A002B03D14FF07A43BB611FE07A691B
S315080207F03B6910461946FA697B6AFFF74FFE0346BC
S31508020800002B14BF00230123DBB2002B03D04FF0C9
S315080208107743BB610BE0BB687A6A1A607A6AFB693E
S3150802082013441A467B681A604FF00003BB61BB6922
S31508020830184607F12807BD4680BD00BF80B58AB0B5
S3150802084000AFF860B9607A60BB68FB617B68BB6120
S3150802085007F11C0207F11803F86811461A46FFF752
S3150802086081FF03463B623B6A4FEAD373DBB2002B36
S315080208704FD1FB691A46BB6940F29000C0F60800E0
S3150802088011461A4606F0BCFEFA69BB691946FB69A7
S31508020890C3EB0103104619464FF0000207F036FA79
S315080208A0024642F22033C2F200031A60FB697B62F7
S315080208B019E007F11403F868796A1A46FFF774FE15
S315080208C003463B623B6A4FEAD373DBB2002B20D165
S315080208D0786AFFF7FBFD02467B6A134403F10303BA
S315080208E023F003037B627B6A03F17C02BB699A42AB
S315080208F008D2786A32F04EFE0346002B02D04FF039
S31508020900010301E04FF00003002BD2D14FF00003A0
S315080209103B623B6A184607F12807BD4680BD00BF01
S3150802092084B080B58AB000AF786007F1340080E8F9
S315080209300E004FF07C033B624FF000033B61FB6DF8
S31508020940002B14D13B6A18464FF0010127F000FF2D
S3150802095003463B613B69002B03D14FF07A43BB61E7
S31508020960A4E03A693B6A10461946FFF7BBFD3B6AA3
S3150802097007F1340107F11002084611461A4608F033
S315080209805FFE0346002B14BF00230123DBB2002BB4
S3150802099079D13B69FB61F86932F0A8FD034683F019
S315080209A00103DBB2002B70D1F869FFF78FFD03460E
S315080209B003F1030323F003037B62FB6D002B11D1C2
S315080209C0786A4FF00C0127F019FF03467B617B69B1
S315080209D0002B07D13B69184627F08EFE4FF07A4363
S315080209E0BB6163E03B6AC3F1000307F134021046B8
S315080209F019464FF0010208F08FFD07F1340207F19C
S31508020A001403104619467A6A08F01AFE0346002BA2
S31508020A1014BF00230123DBB2002B38D17B69FB61AB
S31508020A20F86932F0B7FD034683F00103DBB2002B07
S31508020A3007D0FB6D002B2CD17B69184627F05CFE8C
S31508020A402AE040F2B000C0F6080006F0D9FD07F128
S31508020A500C037868F9691A46FFF7A6FD03464FEABA
S31508020A60D373DBB2002B07D0FB6D002B13D17B6946
S31508020A70184627F041FE0FE0FB68FA68126942F051
S31508020A8008021A6173E700BF06E000BF04E000BF70
S31508020A9002E000BF00E000BFFB6D002B03D13B69FB
S31508020AA0184627F029FE4FF00003BB61BB691846BA
S31508020AB007F12807BD46BDE8804004B0704700BF6D
S31508020AC080B596B008AF7860396007F10803184612
S31508020AD0396808F0ADFA0346002B14BF0023012338
S31508020AE0DBB2002B09D040F2CC00C0F6080006F0B3
S31508020AF087FD4FF077433B632CE0FB6A1846FFF706
S31508020B00BBFC03467B637B6B1B78C3F34003DBB2F8
S31508020B100793EC4607F1140EBEE80F00ACE80F0087
S31508020B209EE807008CE8070007F108030ECB7868F1
S31508020B30FFF7F6FE07F10803184608F0E7FB034637
S31508020B40002B0CBF00230123DBB2002BD5D14FF0BB
S31508020B5000033B633B6B184607F13807BD4680BD69
S31508020B6080B582B000AF786042F6A820C2F20000D3
S31508020B7007F040F91AF0FCFE7B684FF000021A7182
S31508020B8007F10807BD4680BD80B586B002AF78601A
S31508020B9000BF4FF00003FB732FF056FC4FF0000323
S31508020BA0009340F20010C0F608004FF004014FF01F
S31508020BB003024FF0000306F023FD27F091FD40F2F1
S31508020BC02410C0F6080006F01BFD40F65050C2F28B
S31508020BD000007968FFF796FC03466FEA03034FEABB
S31508020BE0D373DBB2002B23D040F65050C2F200007A
S31508020BF0FFF754FD03466FEA03034FEAD373DBB2EA
S31508020C00002B15D040F23410C0F6080006F0F8FCA6
S31508020C10BB8842F22830C2F200004FF000011A46A1
S31508020C201BF08EF940F24010C0F6080006F0E8FC08
S31508020C3042F22833C2F200031B6803F00053002B6A
S31508020C4014BF00230123DBB2002B36D042F228332D
S31508020C50C2F200031B6823F4406242F22833C2F24E
S31508020C6000031A6042F22833C2F200031B6843F4F7
S31508020C70006242F22833C2F200031A6042F6A42343
S31508020C80C2F200031B681B68002B11D042F6A4238C
S31508020C90C2F200031B681B684FF001020092184655
S31508020CA04FF009014FF000024FF0000306F024FA54
S31508020CB0FB79002B01D000F073FD42F22833C2F211
S31508020CC000031B6803F00053002B0CBF002301230B
S31508020CD0DBB2002B2ED042F22833C2F200039B6805
S31508020CE003F00103DBB2002B22D04FF00103FB73A2
S31508020CF042F22833C2F200039B6803F00503052B70
S31508020D0014BF00230123DBB2BB714FF000000BF0C6
S31508020D10CFFD40F65050C2F20000FFF721FF0EF059
S31508020D209DFD0EF03FFD4FF000000BF0CFFD01E0F8
S31508020D300AF0D6FBFB7B002B7FF42BAF07F11007DB
S31508020D40BD4680BD80B485B000AFF86079813A812E
S31508020D50FB80FB687A891A80FB683A895A80FB68A5
S31508020D60FA889A80FB683A8BDA8007F11407BD463F
S31508020D7080BC704780B582B000AF786039604FF0AA
S31508020D80200079683A6809F0BFFB0346184607F15E
S31508020D900807BD4680BD00BF80B483B000AF786047
S31508020DA07B681A6844F23003C4F2010302EA0303B9
S31508020DB044F23002C4F20102934214BF0023012313
S31508020DC0184607F10C07BD4680BC704780B483B04D
S31508020DD000AF78607B681B6803F0FF03502B14BFD3
S31508020DE000230123184607F10C07BD4680BC70474D
S31508020DF080B483B000AF78607B689A687B685B686A
S31508020E00C3EB020303F10103184607F10C07BD46BB
S31508020E1080BC704780B483B000AF786039607B6865
S31508020E201A687B689B68396801FB03F31344184602
S31508020E3007F10C07BD4680BC704700BF80B483B07B
S31508020E4000AF786039607B681B683A68C3EB0203B7
S31508020E507A689268B3FBF2F102FB01F2C2EB030372
S31508020E60184607F10C07BD4680BC704780B483B0AC
S31508020E7000AF786039607B681B683A68C3EB020288
S31508020E807B689B68B2FBF3F3184607F10C07BD466D
S31508020E9080BC704780B586B002AFF860B9607A60E8
S31508020EA03B60FB689B68D3F810C0FB68DB68BA69CD
S31508020EB000921846B9687A683B68E04703461846BE
S31508020EC007F11007BD4680BD80B584B000AFF86053
S31508020ED0B9607A60FB689B681B6AFA68D268104632
S31508020EE0B9687A6898470346184607F11007BD4657
S31508020EF080BD00BF80B582B000AF786039607B687C
S31508020F009B685B6A7A68D2681046396898470346CE
S31508020F10184607F10807BD4680BD00BF80B586B0F2
S31508020F2000AFF860B9607A603B60F868FFF7A4FA28
S31508020F3003467B617869B9687A683B6808F020FCE1
S31508020F400346184607F11807BD4680BD80B582B02C
S31508020F5000AF78607B689B68DB6A7A68D26810465D
S31508020F6098470346184607F10807BD4680BD00BFE5
S31508020F7080B582B000AF78607B689B681B6B7A6825
S31508020F80D268104698470346184607F10807BD4631
S31508020F9080BD00BF80B483B000AF78607B68DB8A0F
S31508020FA003F03003302B14BF00230123DBB21846AB
S31508020FB007F10C07BD4680BC704700BF80B483B0FA
S31508020FC000AF786039603B684FEA03427B681A6073
S31508020FD007F10C07BD4680BC704700BF80B483B0DA
S31508020FE000AF78607B681B684FEA13439BB21846CA
S31508020FF007F10C07BD4680BC704700BF80B485B0B8
S3150802100000AFF860B9607A60BB684FEA03427B6852
S3150802101042EA0302FB681A6007F11407BD4680BC60
S31508021020704700BF80B483B000AF78607B681B68E6
S315080210304FEA13439BB2184607F10C07BD4680BC1C
S31508021040704700BF80B483B000AF78607B681B68C6
S315080210509BB2184607F10C07BD4680BC704700BF15
S3150802106080B485B000AFF860B9607A60BB684FEAB1
S3150802107003427B6842EA0302FB681A6007F1140717
S31508021080BD4680BC704700BF80B483B000AF7860AD
S315080210907B681B684FEA13439BB2184607F10C0795
S315080210A0BD4680BC704700BF80B483B000AF78608D
S315080210B07B681B689BB2184607F10C07BD4680BCC5
S315080210C0704700BF80B483B000AF78607B684FF08A
S315080210D000021A6007F10C07BD4680BC704700BFC4
S315080210E080B485B000AFF860B9607A60BB684FEA31
S315080210F003427B6842EA0302FB681A6007F1140797
S31508021100BD4680BC704700BF80B483B000AF78602C
S315080211107B681B684FEA13439BB2184607F10C0714
S31508021120BD4680BC704700BF80B483B000AF78600C
S315080211307B681B689BB2184607F10C07BD4680BC44
S31508021140704700BF80B582B000AF78600B46FB706F
S31508021150FB78786819464FF0010200F031F807F17A
S315080211600807BD4680BD00BF80B483B000AF786073
S315080211700B46FB707B681A78FB7842EA0303DAB2FD
S315080211807B681A7007F10C07BD4680BC704700BF22
S3150802119080B483B000AF78600B46FB707B681B781F
S315080211A01A46FB786FEA0303DBB202EA0303DBB2F1
S315080211B0DAB27B681A7007F10C07BD4680BC704725
S315080211C080B582B000AF786013460A46FA70BB70E3
S315080211D0FB78002B05D0BB7878681946FFF7C4FF61
S315080211E004E0BB7878681946FFF7D2FF07F10807CB
S315080211F0BD4680BD80B483B000AF7860796849681F
S3150802120008464FF0000103464FF000027968096864
S3150802121008464FF0000142EA000243EA010310467B
S31508021220194607F10C07BD4680BC7047B0B485B0B5
S3150802123000AFF860C7E900233A68FB681A60D7E985
S3150802124000231C464FF000052246FB685A60FB68DD
S31508021250184607F11407BD46B0BC704780B483B080
S3150802126000AF78607B681B78184607F10C07BD4605
S3150802127080BC704780B483B000AF78607B685B78C7
S31508021280184607F10C07BD4680BC704780B483B088
S3150802129000AF78607B685B88184607F10C07BD4685
S315080212A080BC704780B483B000AF786039607B68D1
S315080212B03A681A6007F10C07BD4680BC704700BF42
S315080212C080B483B000AF786039603B68DAB27B6875
S315080212D01A7007F10C07BD4680BC704780B483B00C
S315080212E000AF78600B46FB707B685A78FB7802EA97
S315080212F00303DBB2002B0CBF00230123DBB2184623
S3150802130007F10C07BD4680BC704700BF80B483B0A6
S3150802131000AF786007F10C07BD4680BC704700BF76
S3150802132080B582B000AF786078684FF01001FFF799
S31508021330D5FF0346184607F10807BD4680BD00BF1C
S3150802134080B582B000AF786039607A6840F20A03E5
S31508021350C0F2010313607B6803F104013B68D3E919
S3150802136000230846FFF762FF07F10807BD4680BD5E
S3150802137080B483B000AF786039607A6840F21003AF
S31508021380C0F2010313607B683A685A6007F10C07DA
S31508021390BD4680BC704700BF80B584B000AF786098
S315080213A07868FFF75BFF0346102B14BF002301235F
S315080213B0DBB2002B20D0786800F082F80346FB6087
S315080213C0FB68002B11D0F868FFF748FF0346122B7B
S315080213D00BD1F868FFF7A4FF034683F00103DBB2DB
S315080213E0002B02D04FF0010301E04FF00003002B5F
S315080213F002D04FF0010301E04FF00003184607F14F
S315080214001007BD4680BD00BF80B483B000AF7860C8
S315080214107B6803F10403184607F10C07BD4680BC36
S31508021420704700BF80B483B000AF78607B6803F171
S315080214300403184607F10C07BD4680BC704700BF77
S3150802144080B483B000AF78607B685B68184607F1A2
S315080214500C07BD4680BC704780B483B000AF786085
S315080214607B6803F10403184607F10C07BD4680BCE6
S31508021470704700BF80B483B000AF78607B6803F121
S315080214800403184607F10C07BD4680BC704700BF27
S3150802149080B483B000AF78607B685B68184607F152
S315080214A00C07BD4680BC704780B483B000AF786035
S315080214B07B689B68184607F10C07BD4680BC7047D7
S315080214C080B483B000AF78607B685B68184607F122
S315080214D00C07BD4680BC704780B582B000AF786005
S315080214E07868FFF7EDFF0346184607F10807BD4679
S315080214F080BD00BF80B582B000AF78607868FFF71C
S31508021500DFFF0346184607F10807BD4680BD00BF40
S3150802151080B584B000AF786039603868FFF7B6FEE8
S315080215200346012B0CBF00230123DBB2002B01D09B
S3150802153009F074FF3868FFF7E9FE7B68BB603B6811
S31508021540FB60BB68FA6807CA83E8070007F1100759
S31508021550BD4680BD80B483B000AF78607B685B68A7
S31508021560184607F10C07BD4680BC704780B483B0A5
S3150802157000AF78607B681B68184607F10C07BD4602
S3150802158080BC704780B483B000AF78607B689B6884
S31508021590184607F10C07BD4680BC704780B483B075
S315080215A000AF78607B6803F11403184607F10C074D
S315080215B0BD4680BC704700BF80B582B000AF786078
S315080215C039607868FFF7EAFF02467B685B7C396810
S315080215D001FB03F31344184607F10807BD4680BD0D
S315080215E080B483B000AF78607B685B69184607F100
S315080215F00C07BD4680BC704790B583B000AF7860D3
S315080216007B685B689C6F7B681846FFF71BFD034681
S315080216104FEAC3032344184607F10C07BD4690BD9B
S3150802162090B583B000AF78607B685B68DC6F7B68D7
S315080216301846FFF739FD03464FEA43032344184683
S3150802164007F10C07BD4690BD90B583B000AF786030
S315080216507B685B68D3F884407B681846FFF764FDAD
S3150802166003462344184607F10C07BD4690BD00BF42
S3150802167080B483B000AF78607B68DB6B1A467B6800
S315080216801B69C3EB02034FEAA30213464FEA83031D
S3150802169013444FEA03110B444FEA03210B444FEA62
S315080216A003410B444FEA43031344184607F10C0758
S315080216B0BD4680BC704700BF80B582B000AF786077
S315080216C03960786839681EF049FA7B68184607F166
S315080216D00807BD4680BD00BF80B582B000AF7860FE
S315080216E078681EF08DFA7B68184607F10807BD462A
S315080216F080BD00BF80B582B000AF78600B46FB7034
S31508021700FB7823F00703002B01D009F087FE7B68DC
S3150802171093F82030DBB203F0F803F9781A460B4641
S3150802172042EA0303DBB2DAB27B6883F8202007F1C8
S315080217300807BD4680BD00BF80B582B000AF78609D
S315080217407B6803F5A8731846FFF71CFF034618467D
S3150802175007F10807BD4680BD80B582B000AF786044
S315080217607B6803F5AE731846FFF70CFF0346184667
S3150802177007F10807BD4680BD80B582B000AF786024
S315080217807868FFF7E9FF03469B69184607F10807D9
S31508021790BD4680BD80B400AFBD4680BC704700BF61
S315080217A080B500AF40F2015040F2F811C0F60801C8
S315080217B00DF0B0F840F21C20C0F6080005F020FF34
S315080217C005E042F22830C2F200001DF04FF942F25B
S315080217D02833C2F200031B6803F00053002B0BD117
S315080217E042F22833C2F200031B6803F40033002BCB
S315080217F002D14FF0010301E04FF00003002BE0D1C4
S3150802180080BD00BF80B58AB002AF4FF00503FB600A
S315080218100CF0A2FFFA6849F28063C0F2980303FB50
S3150802182002F31A464FEAE273121843EB0103C7E9B9
S3150802183004234FF000037B6000E000BF42F6A423B6
S31508021840C2F200031B681B68002B11D042F6A423C0
S31508021850C2F200031B681A6807F1040342F2010187
S31508021860009110464FF000014FF0080205F044FCC3
S3150802187042F22833C2F200031B68002B07DB09F089
S3150802188043FE0346002B02D04FF0010301E04FF05E
S315080218900003002B2FD142F22830C2F200001DF0BD
S315080218A0E5F842F22833C2F200031B6803F08043CC
S315080218B0002B0CBF00230123DBB2002B06D040F21B
S315080218C03C20C0F6080005F09BFE15E00CF044FF2C
S315080218D002460B46C7E90623D7E90401D7E90623D8
S315080218E0904271EB030CA8DA40F25020C0F60800C9
S315080218F005F086FE00E000BF42F22830C2F2000080
S315080219001AF0ECFA07F12007BD4680BD80B58CB007
S3150802191000AF4FF00003FB6242F6E812C2F2000281
S3150802192042F6A423C2F200031A6042F6F010C2F28B
S3150802193000004FF0B001FEF7D5FD42F6A423C2F22D
S3150802194000031B6818464FF00401FEF7CBFDFB6A3D
S3150802195040F26432C2F200024FEA830313445A6821
S3150802196040F26433C2F200039B689A420FD142F6F0
S31508021970A423C2F200031A68FB6A4FEA83031A44D5
S3150802198040F61073C2F200031B68136011E042F6B8
S31508021990A423C2F200031A68FB6A4FEA83031A44B5
S315080219A0FB6A4FEA830142F6F013C2F200030B44C4
S315080219B0136042F6A423C2F200031A68FB6A4FEACE
S315080219C0830302EB0301FB6A40F26432C2F20002AD
S315080219D04FEA830313445B680846194600F034F855
S315080219E00346BB62BB6A4FEAD373DBB2002B24D130
S315080219F0FB6A03F10103FB623B4618464FF05001AE
S31508021A0007F016FB0346002B0CBF00230123DBB2AB
S31508021A10002B06D07A6A40F65853C2F200031A60BF
S31508021A2006E040F65853C2F200034FF000021A606D
S31508021A3008F096FE4FF00003BB62BB6A184607F130
S31508021A403007BD4680BD00BF80B588B004AF786058
S31508021A5039607B681A6840F28853C0F60803D3F8DF
S31508021A6000C040F28C53C0F60803196840F280534E
S31508021A70C0F60803009301917B6802931046396801
S31508021A8040F2B832C0F60802634604F0F1FF4FF09E
S31508021A900003FB60FB68184607F11007BD4680BDC8
S31508021AA080B582B000AF42F6A423C2F200031B68D7
S31508021AB07B60786800F00AF84FF000033B603B68E9
S31508021AC0184607F10807BD4680BD00BF80B582B03B
S31508021AD000AF78607B681B68184605F06DF807F159
S31508021AE00807BD4680BD00BF80B582B000AF7860EA
S31508021AF07B681B6803F13003184606F0B1FF07F14D
S31508021B000807BD4680BD00BF80B582B000AF7860C9
S31508021B107B681B68184605F0C3F907F10807BD4636
S31508021B2080BD00BF80B584B000AF786039601248C6
S31508021B30FFF71CFD0346BB6009E0BB68DB691A4672
S31508021B403B689A4201D1BB6811E0FB68BB60BB687F
S31508021B501846FFF7FFFC0346FB60FB68002B0CBF29
S31508021B6000230123DBB2002BE7D14FF0000318460E
S31508021B7007F11007BD4680BDFC23002080B586B05C
S31508021B8000AF78602148FFF7F1FC0346BB6009E025
S31508021B90BB68DB691A467B689A4201D1BB682FE0AB
S31508021BA0FB68BB60BB681846FFF7D4FC0346FB60BC
S31508021BB0FB68002B0CBF00230123DBB2002BE7D105
S31508021BC01348FFF7D3FC03463B6109E03B69DB692F
S31508021BD01A467B689A4201D13B6911E07B693B61EF
S31508021BE03B691846FFF7B6FC03467B617B69002B07
S31508021BF00CBF00230123DBB2002BE7D14FF0000311
S31508021C00184607F11807BD4680BD00BF802400208C
S31508021C108C24002090B58DB000AFF860B9607A6068
S31508021C203A4820F0CDF80446394820F0C9F8034668
S31508021C302344FB61FB6903F101034FEA83031A4656
S31508021C407B681A607B681B6818464FF0010126F00C
S31508021C50D5FD03461A46BB681A60BB681B68002B8B
S31508021C6003D14FF07A437B6149E0BB681B68FA6986
S31508021C701A60BB681B6803F10403BB612348FFF7BC
S31508021C8075FC03463B620AE03B6ADB691A46BB6996
S31508021C901A60BB6903F10403BB617B6A3B623B6A58
S31508021CA01846FFF757FC03467B627B6A002B0CBF7C
S31508021CB000230123DBB2002BE6D11548FFF756FCB9
S31508021CC00346BB620AE0BB6ADB691A46BB691A604D
S31508021CD0BB6903F10403BB61FB6ABB62BB6A1846B4
S31508021CE0FFF738FC0346FB62FB6A002B0CBF002396
S31508021CF00123DBB2002BE6D14FF000037B617B693F
S31508021D00184607F13407BD4690BD00BF802400205F
S31508021D108C24002080B58EB000AFF860B9607A6076
S31508021D203B60B868FFF72AFF0346BB61BB69002B15
S31508021D3003D14FF021437B61DCE04FF00003FB61E6
S31508021D40CCE04FF000033B62BB6903F5A873184663
S31508021D50FFF70CFC03467B627FE0FB69012B6ED121
S31508021D603B6AFB627B6A9B6C002B2BD07B681A68EA
S31508021D70FB6A4FEA430303F101034FEAC303134421
S31508021D8003F104037B63FB6A03F10103FB627B6ACB
S31508021D909A6C7B6B12691A607B6A9B6CDB691A46C2
S31508021DA07B6A9B6C1B6AC3EB02031A467B6B5A60FF
S31508021DB07B6A1B6DDB691A467B6B9A607B6A5A6A79
S31508021DC07B6BDA607B681A68FB6A4FEA430303F1A6
S31508021DD001034FEAC303134403F104033B633B6B5A
S31508021DE07A6A926A1A607B6ADB691A467B6A9B6B15
S31508021DF0C3EB02031A463B6B5A603B6B5B68002BCC
S31508021E0009D0B869FFF798FC02467B6A9A4202D063
S31508021E104FF0010301E04FF00003002B05D03B6BA6
S31508021E205B6803F1FF323B6B5A607B6A1B6DDB69A9
S31508021E301A463B6B9A607B6A5A6A3B6BDA607B6A24
S31508021E409B6C002B03D03B6A03F101033B623B6A9E
S31508021E5003F101033B62BB6A7B627B6A1846FFF7A2
S31508021E6079FB0346BB62BB6A002B0CBF0023012326
S31508021E70DBB2002B7FF471AFFB69002B2AD13B6AD8
S31508021E8003F1FF334FEA031303F11C031A463B68B7
S31508021E901A603B681B6818464FF4006126F0AEFCD0
S31508021EA003461A467B681A607B681B68002B03D1B7
S31508021EB04FF07A437B611DE07B681B683A6A1A60B9
S31508021EC07B681B68BA69126A5A607B681B68BA69BA
S31508021ED0526A9A60FB6903F10103FB61FB69012BF4
S31508021EE0CCBF00230123DBB2002B7FF42AAF4FF0CD
S31508021EF000037B617B69184607F13807BD4680BD3A
S31508021F0080B58AB002AF786039604FF00103FB747E
S31508021F103B687B6142F22833C2F200031B6843F036
S31508021F20804242F22833C2F200031A607B68DB69F8
S31508021F3003F00203002B3CD17B685B6ABB61BB6979
S31508021F40002B09D0BB695B6803F00103DBB2002BE7
S31508021F5002D04FF0010301E04FF00003FB744FF08B
S31508021F600003BB6042F22833C2F200031B6803F483
S31508021F700063002B02D04FF0010301E04FF000038B
S31508021F80002B02D04FF0040301E04FF00003FB6080
S31508021F907B691B6807F1080200924FF0080201925A
S31508021FA0184679684FF001024FF0000305F0BCF8B5
S31508021FB012E07B685B6AFB61FB69002B09D0FB694F
S31508021FC05B6803F00103DBB2002B02D04FF001037A
S31508021FD001E04FF00003FB7442F22833C2F2000319
S31508021FE01B6803F44063002B14BF00230123DBB2F2
S31508021FF0002B1BD0FB7C002B0CD042F22833C2F2FA
S3150802200000031B6843F0004242F22833C2F200037F
S315080220101A600BE042F22833C2F200031B6823F06F
S31508022020004242F22833C2F200031A604FF001035B
S31508022030184607F12007BD4680BD00BF90B58FB090
S3150802204002AF786039600AF00BF83B68BB607B68C0
S31508022050DB6903F00203002B40F012814FF0000304
S31508022060FB604FF000033B614FF000037B614FF0CA
S315080220700003BB61E4E006F097FF0346FB61FB69D8
S31508022080002B12D1BB681B684FF0000200924FF07A
S3150802209000020192184679684FF001024FF00003D8
S315080220A005F042F84FF00003ECE0BB69012B21D1A1
S315080220B03A6913464FEA430313444FEA8303184621
S315080220C026F0F2FA0346FB60FB68002B12D1BB68C6
S315080220D01B684FF0000200924FF000020192184668
S315080220E079684FF001024FF0000305F01DF84FF032
S315080220F00003C7E0F869FEF7BFF903463B624FF0F3
S3150802210000037B627FE03B6A99697A6A13464FEA63
S31508022110830313444FEA83030B44BB624FF0000365
S31508022120FB6262E0BB69002B04D13B6903F1010340
S315080221303B6156E07A6913464FEA430313444FEA72
S3150802214083031A46FB6802EB0304BB6A1969FA6A37
S3150802215013464FEA430313444FEA83030B445B686F
S31508022160B86A1946FEF756FE034623607A6913468D
S315080221704FEA430313444FEA83031A46FB6802EB0A
S315080221800304BB6A1969FA6A13464FEA43031344FE
S315080221904FEA83030B441846FEF72AFE0346BA6A39
S315080221A0926802FB03F363607A6913464FEA4303B4
S315080221B013444FEA83031A46FB6802EB0301BB6A20
S315080221C01869FA6A13464FEA430313444FEA83032C
S315080221D003441B6803F0FF038B607B6903F1010369
S315080221E07B61FB6A03F10103FB62BB6ADA68FB6A7D
S315080221F09A4294BF00230123DBB2002B92D17B6A59
S3150802220003F101037B623B6A5A697B6A9A4294BF6D
S3150802221000230123DBB2002B7FF475AFF86906F0C1
S31508022220D9FE0346FB61FB69002B0CBF0023012381
S31508022230DBB2002B7FF45EAFBB6903F10103BB611E
S31508022240BB69012BCCBF00230123DBB2002B7FF431
S3150802225012AFBB6819683A6913464FEA4303134437
S315080222604FEA8303FA6800920193084679684FF0A9
S3150802227001024FF0000304F057FFF86826F024FA2B
S315080222804FF00103184607F13407BD4690BD00BF5B
S3150802229080B588B000AFF860B9607A604FF0000385
S315080222A0FB7640F65853C2F20003196807F1140286
S315080222B007F110030846B968FEF730FE40F6585390
S315080222C0C2F200031B681846FEF7D6F80346996958
S315080222D07A6913464FEA830313444FEA83030B448E
S315080222E019693A6913464FEA430313444FEA8303CB
S315080222F00B44FB617B68032B00F2C78001A252F8EC
S3150802230023F000BF152302081D230208BB23020877
S31508022310072402084FF00103FB76BDE0FB691B6840
S3150802232044F29002C4F20002934242D044F290026E
S31508022330C4F2000293421DD842F25002C4F20002CD
S31508022340934236D042F25002C4F20002934204D8B3
S3150802235044F2400293422CD09EE044F23002C4F288
S315080223600002934225D044F26002C4F2000293426C
S315080223701FD091E044F2E002C4F20002934218D060
S3150802238044F2E002C4F20002934206D844F2A002E2
S31508022390C4F2000293420CD07EE044F2F002C4F288
S315080223A00002934205D044F23002C4F2010293427B
S315080223B06FD14FF00103FB766EE0F869FEF706FD72
S315080223C00346002B05D1F869FEF7E6FC0346002B07
S315080223D002D04FF0010301E04FF00003002B03D0B7
S315080223E04FF00103FB7657E040F26433C2F2000372
S315080223F05B68184607F030FE0346012B14BF00231C
S315080224000123FB7648E0FB691B6844F29002C4F29A
S315080224100002934235D044F29002C4F2000293427B
S3150802242010D842F25002C4F20002934229D044F272
S315080224306002C4F20002934223D044F2400293425D
S315080224401FD029E044F2E002C4F20002934218D0F7
S3150802245044F2E002C4F20002934206D844F2A00211
S31508022460C4F2000293420CD016E044F2F002C4F21F
S315080224700002934205D044F23002C4F201029342AA
S3150802248009D14FF00103FB7606E04FF00003FB7615
S3150802249002E000BF00E000BFFB7E184607F12007F6
S315080224A0BD4680BD90B599B002AFF860B9607A6052
S315080224B03B6040F65853C2F20003196807F114024A
S315080224C007F110030846B968FEF728FD0346002BF4
S315080224D00CBF00230123DBB2002B00F0308140F64B
S315080224E05853C2F200031B681846FDF7C5FF034698
S315080224F0BB61BB68FB613B683B624FF001037B62D1
S315080225007B68BB62BB6999697A6913464FEA83039A
S3150802251013444FEA83030B441846F969FEF78EFC07
S315080225200346FB62FFE0BB6999697A6913464FEA7B
S31508022530830313444FEA83030B443B633B6B1969DA
S315080225403A6913464FEA430313444FEA83030B449B
S315080225505B68386B1946FEF75DFC03467B63386B8E
S31508022560F969FEF783FC0346BB633B6B9A68FB6A11
S31508022570C3EB0203FB634FF00003FB62B4E0BA6AE3
S31508022580FB6B9A4201D8BB6A00E0FB6B3B643B6B70
S315080225909B68FB633B6B19693A6913464FEA430327
S315080225A013444FEA83030B449A68BB6B9A420BD2D5
S315080225B03B6903F101033B613B6BDA683B699A426B
S315080225C002D808F02BFF9EE0F868F969BA6EFFF7A1
S315080225D05FFE034683F00103DBB2002B02D04FF005
S315080225E0000309E1BB6E032B67D801A252F823F058
S315080225F001260208012602087F260208A1260208E9
S31508022600BB691B7803F00203002B09D0FB69386A01
S3150802261019463A6C56F01EFF4FF001037B624CE0F6
S31508022620BB6E002B0CD178684FF0010126F090F8AA
S3150802263003463B623B6A002B02D14FF00003DBE004
S3150802264040F65853C2F200031B681846F9693A6CF9
S315080226503B6AFDF723FF03467B62BB6E002B2BD139
S315080226603C683A6C3B681B68386A11461A4605F09C
S315080226704DFB03462360386A26F03EF81DE040F615
S315080226805853C2F200031B684FF000020092184624
S31508022690F9693A6C3B6AFEF7FDFB03467B620CE07E
S315080226A040F65853C2F200031B681846F969FEF74A
S315080226B021FC03467B6200E000BF7B6A002B1FD029
S315080226C0BA6A3B6CC3EB0203BB62BB6A002B19DD19
S315080226D03A6A3B6C13443B62FA693B6C1344FB61EE
S315080226E0BB6B03F10103BB633B6B5A68BB6B9A4234
S315080226F094BF00230123DBB2002B7FF440AF02E034
S3150802270000BF00E000BF4FF00003BB634FF00003B9
S315080227103B61BB6A002B6ADD7B6A002B69D07B6949
S3150802272003F101037B61BB695A697B699A4294BFCB
S3150802273000230123DBB2002B7FF4F5AE5AE0BB6817
S315080227407B647A6C7B681344BB6440F26433C2F2DE
S3150802275000039B69FB6440F26433C2F20003DA6940
S31508022760FB6C13443B657A6CFB6C9A4207D37A6C12
S315080227703B6D9A4203D2BA6C3B6D9A420DD93B6DB8
S31508022780009340F26020C0F60800796C7A68FB6C08
S3150802279004F036FF4FF000032EE0BB6E032B29D858
S315080227A001A252F823F000BFF5270208B92702084A
S315080227B0C7270208D72702087B6C386819467A6841
S315080227C056F048FE16E07B6C7B65786D39687A6848
S315080227D056F040FE0EE07B6C7B657B68002B09D0C9
S315080227E0786D4FF0FF017A6856F006FF02E000BFE7
S315080227F000E000BF4FF00103184607F15C07BD462B
S3150802280090BD00BF80B5ADF5846D02AF07F1080330
S31508022810A3F1040318603B4619603B461B68C7F8D8
S315080228200C3407F10803A3F104031B685B6AC7F8B3
S315080228301034D7F810345B68C7F81434D7F8143450
S31508022840B3F5806F03D94FF48063C7F8143440F6A2
S315080228505853C2F200031B68002B02D14FF0000343
S3150802286029E0D7F810341A6807F11803A3F10C0304
S315080228704FF001010091D7F80C041146D7F8142439
S31508022880FFF710FED7F80C341968D7F8140407F1C5
S315080228900803A3F1040307F11802A2F10C0200923D
S315080228A00190084619684FF001024FF0000304F040
S315080228B03BFC4FF00103184607F1180707F5806736
S315080228C0BD4680BD80B588B002AF786039603B6886
S315080228D03B617B685B6A7B6140F65853C2F2000330
S315080228E01B68002B02D14FF0000319E07B691968B7
S315080228F07B695A687B6903F108034FF0020000906E
S315080229003869FFF7CFFD0346FB733B691A68FB7B01
S31508022910104679681A464FF0000304F06DFCFB7BFB
S31508022920184607F11807BD4680BD00BF80B588B0B6
S3150802293002AF786039603B683B617B685B6A7B61A2
S315080229407B6919687B695A6807F10C034FF0000026
S3150802295000903869FFF7A6FD3B691B6807F10C0270
S3150802296000924FF004020192184679684FF001026C
S315080229704FF0000304F0D8FB4FF00103184607F1A5
S315080229801807BD4680BD00BF80B588B002AF786023
S31508022990396009F065FB3B683B617B685B6A7B6172
S315080229A040F65853C2F200031B68002B02D14FF0BF
S315080229B000031AE07B691A687B695B684FF00301BA
S315080229C00091386911461A464FF00003FFF76AFD6F
S315080229D00346FB733B691A68FB7B104679681A46FD
S315080229E04FF0000304F008FCFB7B184607F11807B2
S315080229F0BD4680BD80B584B000AF786039603B685B
S31508022A00BB607B685B6AFB60BB681B6818467968B3
S31508022A104FF001024FF0000304F0EEFBFB681B685F
S31508022A2098474FF00103184607F11007BD4680BDC7
S31508022A3080B584B000AF786039603B68BB607B685C
S31508022A405B6AFB60FB68002B47D0FB681B6803F0D8
S31508022A500103DBB2002B11D0BB681B6818467968E4
S31508022A604FF001024FF0000304F0C6FB4FF00000DE
S31508022A704FF06401FEF77EF90CF06EFD08F044FD96
S31508022A800346002B0CBF00230123DBB2002B24D004
S31508022A90FB681B6803F00203002B0CD042F22833B2
S31508022AA0C2F200039B6843F0010242F22833C2F2E3
S31508022AB000039A6011E0FB681B6803F00403002B0D
S31508022AC00BD042F22833C2F200039B6843F0050298
S31508022AD042F22833C2F200039A6042F22833C2F263
S31508022AE000031B6843F0005242F22833C2F2000385
S31508022AF01A60BB681B68184679684FF001024FF0E6
S31508022B00000304F079FB4FF00103184607F110079A
S31508022B10BD4680BD80B58CB002AF786039603B682F
S31508022B207B6240F26433C2F200039B69FB6040F2A7
S31508022B306433C2F20003DB693B614FF001037B6138
S31508022B4040F26433C2F200031B6ABB6140F264338B
S31508022B50C2F200035B6AFB614FF002033B627B6AC7
S31508022B601B6807F10C0200924FF0180201921846F0
S31508022B7079684FF001024FF0000304F0D5FA4FF0DE
S31508022B800103184607F12807BD4680BD80B483B005
S31508022B9000AF786039604FF00103184607F10C0759
S31508022BA0BD4680BC704700BF80B586B002AF78606C
S31508022BB039603B68FB6042F22833C2F20003BB600D
S31508022BC0FB681B6807F1080200924FF004020192A3
S31508022BD0184679684FF001024FF0000304F0A4FA90
S31508022BE04FF00103184607F11007BD4680BD00BF26
S31508022BF080B588B002AF786039603B683B617B6814
S31508022C005B6A7B6142F22833C2F200031B681A46EA
S31508022C107B691B6842EA03031A4642F22833C2F268
S31508022C2000031A6042F22833C2F200031B681A46EE
S31508022C307B695B686FEA030302EA03031A4642F2F8
S31508022C402833C2F200031A607B68DB6903F00103CA
S31508022C50002B15D142F22833C2F200031B68FB602F
S31508022C603B691B6807F10C0200924FF004020192BD
S31508022C70184679684FF001024FF0000304F054FA3F
S31508022C80FEF788FD4FF00103184607F11807BD46FF
S31508022C9080BD00BF90B589B004AF78607C6840F209
S31508022CA09C20C0F608000CF0B3FB02464FF0000366
S31508022CB0009340F29C23C0F6080301930292204631
S31508022CC04FF004014FF003024FF0000300F040F802
S31508022CD042F26463C2F20003D3F80431002B24D013
S31508022CE042F26463C2F20003D3F804315B69002B33
S31508022CF01BD042F26463C2F20003D3F804315B6963
S31508022D0003F11C03FB607B6803F14000FB6819882A
S31508022D10FB685A88FB689B88D7F80CC0BCF806C0C3
S31508022D20CDF800C0FEF70EF80EE07B6803F140030B
S31508022D304FF00002009218464FF000014FF00002D1
S31508022D404FF00003FDF7FEFF07F11407BD4690BDDD
S31508022D5080B588B002AFF86079813A81FB80F8685D
S31508022D6079893A89FB88B7F820C0CDF800C0FDF703
S31508022D70E9FFFB684FF000021A727B6A002B11D03A
S31508022D80BB6A002B0ED0BB6A372B28BF37237B6161
S31508022D90FB6803F1080318464FF038017A6A7B6923
S31508022DA00CF004FB07F11807BD4680BD80B5A6B036
S31508022DB002AF786039603B68FB677B685B6AC7F875
S31508022DC080304FF00003BB604FF00003C7F8843031
S31508022DD04FF00003C7F888304FF0010387F88F30A9
S31508022DE007F1080318464FF000014FF0740256F037
S31508022DF003FCD7F880301B6803F1FF33062B00F279
S31508022E00B78001A252F823F0252E0208832E020863
S31508022E10AD2E0208712F0208E92E02081F2F02089A
S31508022E203B2F0208BB6843F00103BB60BB6843F053
S31508022E300803BB60BB6843F00203BB60BB6843F090
S31508022E401003BB60BB6843F48063BB60BB6843F096
S31508022E500403BB6008F058FB0346002B0CBF002393
S31508022E600123DBB2002B03D0BB6843F02003BB600F
S31508022E7007F10803C7F884304FF00403C7F888300F
S31508022E807AE007F04DFC0346BB6007F051FC0346A7
S31508022E90FB6007F055FC03463B6107F10803C7F8D8
S31508022EA084304FF00C03C7F8883065E04FF004030E
S31508022EB0FB6140F2E420C0F608000CF0A9FA0346CA
S31508022EC007F1080210464FF0140140F2E422C0F658
S31508022ED008020CF06BFA07F10803C7F884304FF0C2
S31508022EE01803C7F8883047E007F10803184607F0C1
S31508022EF0F5F90346012B14BF00230123DBB2002B8D
S31508022F0008D007F10803C7F884304FF07403C7F8EE
S31508022F10883031E04FF0000387F88F302CE007F154
S31508022F2008031846FFF7B6FE07F10803C7F8843008
S31508022F304FF04803C7F888301EE007F10803184621
S31508022F40FDF764FA0346012B14BF00230123DBB203
S31508022F50002B08D007F10803C7F884304FF0400366
S31508022F60C7F8883008E04FF0000387F88F3003E08F
S31508022F704FF0000387F88F30FB6F1A6897F88F3087
S31508022F80D7F884100091D7F888100191104679680D
S31508022F901A464FF0000304F0C7F84FF0010318462B
S31508022FA007F19007BD4680BD80B588B002AF78604C
S31508022FB039603B683B617B685B6A7B617B691B683E
S31508022FC018464FF4006125F0C3FB0346FB60FB6815
S31508022FD0002B02D14FF0000311E03B691B6807F191
S31508022FE00C0200924FF004020192184679684FF0DB
S31508022FF001024FF0000304F097F84FF00103184658
S3150802300007F11807BD4680BD80B588B002AF786063
S3150802301039603B683B617B685B6A7B6140F264337B
S31508023020C2F200035B68184606F08EFF0346002BC1
S3150802303014BF00230123DBB2002B02D04FF000039A
S3150802304029E04FF00103FB603B691B6807F10C029C
S3150802305000924FF004020192184679684FF0010275
S315080230604FF0010304F060F84FF000004FF4967138
S31508023070FDF780FE40F26433C2F200035A687B69A8
S315080230801B681046194606F07BFF0346012B14BF40
S3150802309000230123DBB2184607F11807BD4680BD97
S315080230A080B590B002AF786039603B68BB627B68D6
S315080230B05B6AFB624FF004037B6307F124033B63FD
S315080230C007F10C0318464FF01801FDF70BFAFB6AD5
S315080230D0B3F854303B82FB6AB3F856307B82FB6AFC
S315080230E01B6CFB60FB6A5B6C9BB23B83FB6A9B6C4B
S315080230F09BB27B83FB6ADB6CFB61FB6A1B6D3B62E3
S31508023100FA6A07F10C031046194607F02FFB034625
S315080231107B62BB6A1B683A6B00927A6B019218460D
S3150802312079684FF001024FF0000303F0FDFF4FF0FC
S315080231300103184607F13807BD4680BD80B58EB033
S3150802314002AF786039603B68BB617B685B6AFB618A
S315080231504FF00003BB604FF00C037B6207F10C03D0
S3150802316018464FF00C01FDF7BDF907F10C033B6257
S31508023170FB691B681846FB695968FB6903F10C026F
S31508023180FB699B684FF0000CCDF800C007F1080CEC
S31508023190CDF804C007F0F8FA0346002B0CBF00234B
S315080231A00123DBB2002B3DD0BB68002B3ADDBB689E
S315080231B003F10803BB62BB6A184625F075FA034693
S315080231C0FB62FB6A002B2DD0FB691B681846FB695C
S315080231D05968FB6903F10C02FB699B68D7F82CC096
S315080231E00CF1080CCDF800C007F1080CCDF804C0A4
S315080231F007F0CAFA0346002B0CBF00230123DBB2F1
S31508023200002B0CD0FB6A3B62BB6A7B62BB681A4620
S315080232103B6A5A603B6A4FF001021A6002E0F86A9A
S3150802322025F052FABB691B683A6A00927A6A0192D9
S31508023230184679684FF001024FF0000303F074FF55
S3150802324007F10C023B6A9A4202D0386A25F03CFA28
S315080232504FF00103184607F13007BD4680BD00BF8F
S3150802326080B58AB002AF786039603B68BB617B681B
S315080232705B6AFB614FF000033B614FF00403FB609E
S3150802328040F65C50C2F200004FF0FF014FF4807224
S3150802329056F0B2F94FF000037B61FB691B6807F130
S315080232A01002009207F10C02019218464FF0010132
S315080232B04FF000024FF0000307F066FA3B69012B54
S315080232C018D14FF001037B61BB691B6807F1140231
S315080232D000924FF004020192184679684FF00102F3
S315080232E04FF0000303F020FF4FF000004FF4C871BF
S315080232F0FDF740FDFB691B681946FB6903F10802E5
S31508023300FB695B68084611461A4607F04DFA0346FA
S31508023310002B0CBF00230123DBB2002B10D0FB6964
S315080233201B68184607F04EFA03467B617B69002B39
S3150802333006D1FB691B68184607F050FA03467B61FB
S31508023340BB691B6807F1140200924FF0040201924E
S31508023350184679684FF001024FF0000303F0E4FEC5
S315080233604FF00103184607F12007BD4680BD00BF8E
S3150802337080B58EB002AF786039603B68FB617B68C6
S315080233805B6A3B624FF00C03BB624FF04003FB6083
S31508023390FB684FEA830303F10803FB6240F65C50BD
S315080233A0C2F200004FF0FF014FF4807256F024F982
S315080233B007F1100318464FF00C01FDF793F807F1D1
S315080233C010037B623B6A1B681A4607F10C03104618
S315080233D040F65C51C2F200011A4607F00BFA0346A0
S315080233E0002B0CBF00230123DBB2002B23D0FB6A80
S315080233F0184625F059F903467B627B6A002B17D0DB
S31508023400FA687B6A5A607B6A4FF001021A607B6A25
S3150802341003F10802FB684FEA8303104640F65C5143
S31508023420C2F200011A4656F015F8FB6ABB6202E0C0
S3150802343007F110037B62FB691B687A6A0092BA6A13
S315080234400192184679684FF001024FF0000303F023
S315080234506BFE07F110027B6A9A4202D0786A25F05F
S3150802346033F94FF00103184607F13007BD4680BD10
S3150802347080B588B002AF786039603B683B617B688B
S315080234805B6A7B617B695B684FEA53133F2B54D8AF
S315080234907B695B684FEA531240F65C53C2F200033B
S315080234A053F822207B695B6803F01F0322FA03F3B1
S315080234B003F00103DBB2002B3BD07B6918687B69FA
S315080234C05B6819467B6903F110027B69DB68D7F8EA
S315080234D014C00CF1080CCDF800C04FF0040CCDF85E
S315080234E004C007F095F90346FB60FB68002B3DD044
S315080234F07B695B684FEA53127B695B684FEA531133
S3150802350040F65C53C2F2000353F821107B695B68EC
S3150802351003F01F034FF0010000FA03F36FEA0303F7
S3150802352001EA030140F65C53C2F2000343F8221093
S315080235301DE04FF00103FB6019E07B6918687B699F
S315080235405B6819467B6903F110027B69DB68D7F869
S3150802355014C00CF1080CCDF800C04FF0040CCDF8DD
S3150802356004C007F055F90346FB6000E000BFFB689C
S31508023570002B02D14FF0000311E03B691B6807F1EB
S315080235800C0200924FF004020192184679684FF035
S3150802359001024FF0000303F0C7FD4FF0010318467E
S315080235A007F11807BD4680BD80B588B002AF7860BE
S315080235B039603B683B617B685B6A7B617B6919683A
S315080235C07B6903F108027B695B68084611461A465D
S315080235D007F02EF90346FB603B691B6807F10C02EC
S315080235E000924FF004020192184679684FF00102E0
S315080235F04FF0000303F098FDFB68002B13D04FF041
S3150802360000004FF0C801FDF7B5FB7B6919687B69B5
S3150802361003F108027B695B68084611461A4607F0F9
S3150802362015F90346FB60FB68012B14BF002301232F
S31508023630DBB2184607F11807BD4680BD90B591B0B2
S3150802364002AFF860B9607A603B60FB68002B02D172
S315080236504FF0010315E1BB681B68002B02D07B689B
S31508023660002B02D14FF000030BE1BB681B68FB621B
S3150802367003F1B002BB681A607B6803F1FF337B6013
S31508023680F86A4FF000014FF0B00255F0B5FF3B68FB
S31508023690002B01D03B6800E0FB68FA6A1360F86801
S315080236A0FDF7DCFD03461A46FB6A5A60F868FDF721
S315080236B0E1FD03461A46FB6A9A60F868FDF7E6FDDD
S315080236C003461A46FB6ADA60BB6C002B05D0FB6A16
S315080236D0BA6C1268C3F8982011E007F11403184669
S315080236E0F9682FF0E9FC03466FEA03034FEAD3733E
S315080236F0DBB2002B03D0FB6ABA69C3F89820FB6ACF
S315080237005B6803F1FF33192B00F2B98001A252F864
S3150802371023F000BF7D3702087D3702087D3702088D
S315080237207D3702087D3702087D3702087D37020891
S315080237307D3702087D3702087D3702087D37020881
S315080237407D3702087D3702087D3702089937020855
S31508023750FD3702081B3802081B3802082D380208F2
S31508023760FD3702087F3802087F3802087F380208C8
S315080237707F3802087D37020863380208FB6A03F1BC
S315080237801004F868FDF74EFE0346204619464FF028
S31508023790080255F05FFE72E0F868FDF751FE03462F
S315080237A03B633B6B002B1AD0FB6A3A6BC3F8942037
S315080237B0386B0BF02DFE0246FB6AC3F89020FB6AB3
S315080237C003F11002FB6AD3F890307F2B28BF7F23C0
S315080237D010464FF080013A6B0BF0E8FD4FE0FB6AAA
S315080237E04FF00002C3F89420FB6A4FF00002C3F8B8
S315080237F09020FB6A4FF000021A7440E0F868FDF761
S315080238005FFE0346BA6C00921846B9687A684FF0AA
S315080238100003FFF713FF034633E0F868FDF71CFEC3
S315080238200246FB6A1268C3F8982028E0FB687B63A5
S315080238307B6BDA68FB6AC3F89C207B6B1846FDF73C
S3150802384019FE03465B881A46FB6AC3F8A0207B6BFF
S315080238501846FDF70FFE0246FB6A5268C3F8A42013
S315080238600DE0F868FDF714FE0246FB6AC3F8A820C5
S31508023870F868FDF719FE0246FB6AC3F8AC204FF05A
S315080238800103184607F13C07BD4690BD80B5ADF564
S31508023890387D02AF07F10C0CCCF8000007F10800DE
S315080238A0016007F104010A603A46136007F114033E
S315080238B0C7F8D43207F1040107F535723B46D7F843
S315080238C0E0020090086811464FF004021B68FFF7F1
S315080238D0B5FE0346002B1CD007F10C031B681A68B9
S315080238E0D7F8D432194607F11403C3EB0103194674
S315080238F007F1080307F114000090019110461968B0
S315080239004FF001024FF0000303F00EFC4FF00103E3
S315080239100FE007F10C031B681A6807F10803104643
S3150802392019684FF000024FF0000303F065FC4FF0F0
S315080239300003184607F53677BD4680BD80B586B0C2
S3150802394000AF786039603B68FB607B685B6A3B6105
S315080239503B691B68F8681946FEF7E4F803467B617B
S315080239607B69002B06D042F22830C2F20000796940
S315080239701BF052FFFB681A687B69002B0CBF0023F9
S315080239800123DBB2104679681A464FF0000303F0AA
S3150802399033FC4FF00103184607F11807BD4680BDF0
S315080239A080B584B000AF786039603B68BB607B68DD
S315080239B05B6AFB60FB6803F104027B681B6AA3F17E
S315080239C0040148F63963C3F6E303A3FB01034FEA8E
S315080239D0D30342F22830C2F2000011461A461BF0FF
S315080239E0ABF8BB681B68184679684FF001024FF0BE
S315080239F0000303F001FC4FF00103184607F1100714
S31508023A00BD4680BD80B58EB002AF786039603B682E
S31508023A10FB6207F1080342F22830C2F20000194697
S31508023A201BF096F9034683F00103DBB2002B08D09C
S31508023A3007F1080318464FF000014FF0240255F02B
S31508023A40DBFDFB6A1B6807F1080200924FF02402AD
S31508023A500192184679684FF001024FF0000303F00D
S31508023A6063FB4FF00103184607F13007BD4680BDD8
S31508023A7080B487B000AF78600B467B8042F26463FD
S31508023A80C2F20003FB6042F26463C2F20003D3F897
S31508023A9000313B6110E0FB681B687B617B69002B88
S31508023AA006D07B69DA687B889A4201D17B6911E084
S31508023AB0FB6803F10403FB603B69002B0CBF002380
S31508023AC00123DBB23A6902F1FF323A61002BE2D1F5
S31508023AD04FF00003184607F11C07BD4680BC704725
S31508023AE080B586B000AFF860B9607A60B868FDF74D
S31508023AF099FA0346F8681946FFF7BAFF03467B6147
S31508023B007B69002B0BD0B868FDF79CFA03461A4668
S31508023B107B691B6B9A4202DA4FF0010301E04FF010
S31508023B200003002B05D07868B9682EF0A7FD034676
S31508023B3001E04FF00003184607F11807BD4680BD9D
S31508023B4080B586B000AFF860B9607A60B868FDF7EC
S31508023B509BFA0346F8681946FFF78AFF03467B6114
S31508023B607B69002B0BD0B868FDF79EFA03461A4606
S31508023B707B695B6B9A4202DA4FF0010301E04FF070
S31508023B800003002B05D07868B9682EF071FF03464A
S31508023B9001E04FF00003184607F11807BD4680BD3D
S31508023BA080B586B000AFF860B9607A60B868FDF78C
S31508023BB0ABFA0346F8681946FFF75AFF03467B61D4
S31508023BC07B69002B0BD0B868FDF7AEFA03461A4696
S31508023BD07B699B6B9A4202DA4FF0010301E04FF0D0
S31508023BE00003002B05D07868B9682EF0F9FF034662
S31508023BF001E04FF00003184607F11807BD4680BDDD
S31508023C0080B588B000AFF860B9607A603B60B86882
S31508023C10FDF7B4FF03467B613B684FF000021A705A
S31508023C207B69002B3CD07B6903F5A8731846FDF720
S31508023C309DFC0346BB6125E0BB699B6C002B11D03A
S31508023C407B68002B14BF00230123DBB27A6802F1DA
S31508023C50FF327A60002B05D03B684FF001021A70DA
S31508023C60BB691FE07B68002B14BF00230123DBB26C
S31508023C707A6802F1FF327A60002B01D0BB6911E043
S31508023C80FB69BB61BB691846FDF764FC0346FB6129
S31508023C90FB69002B0CBF00230123DBB2002BCBD11F
S31508023CA04FF00003184607F12007BD4680BD00BF46
S31508023CB090B5A5B002AFF860B9607A6007F1600303
S31508023CC018464FF00001FDF753FB07F1500207F1C2
S31508023CD0600310461946FDF7EFFC7B68002B04D0FB
S31508023CE07868FDF74BFF034601E04FF000033B6798
S31508023CF0BB684FF000021A6007F160031846F968BC
S31508023D004FF0000221F0DAFE0346FB66FB6E4FEA2D
S31508023D10D373DBB2002B40F0D28007F1600318465A
S31508023D20FDF7E8FB03464FF0FF3200924FF0000220
S31508023D30019242F22830C2F20000B9681A464FF0E0
S31508023D40040319F087F80346FB66FB6E4FEAD37342
S31508023D50DBB2002B40F0B3803B6F002B04D0BB686C
S31508023D601B683A6FC3F87021BB681B681846FDF7D3
S31508023D70E3FC03467B677B6F1B6BBB67BB6F5B7A98
S31508023D8087F87F3097F87F30002B00F095807B6F9D
S31508023D90DB6A07F1380210461946BA6F2EF028F97F
S31508023DA07B6F5B69C7F88030BB6C03F02003002B7E
S31508023DB011D0D7F880004FF00001FDF7D9FA97F82D
S31508023DC07F3003F1FF3387F87F30D7F8803003F16D
S31508023DD00C03C7F8803007F1380207F128031046AA
S31508023DE019462EF087F90346FB66FB6E4FEAD37334
S31508023DF0DBB2002B63D107F1100C07F1380EBEE8CF
S31508023E000F00ACE80F009EE803008CE8030017E0F9
S31508023E1007F1100207F12803104619462EF06AF92F
S31508023E200346FB66FB6E4FEAD373DBB2002B46D121
S31508023E3097F82830002B03D04FF02243FB663EE06A
S31508023E4007F110031846FDF7CBFB0346002BD4BF38
S31508023E5000230123DBB2002BDAD14FF0000387F8E7
S31508023E6087301EE007F1380342F22830C2F200001A
S31508023E70D7F880101A4619F075FA0346FB66FB6EE8
S31508023E804FEAD373DBB2002B19D197F8873003F1C7
S31508023E90010387F88730D7F8803003F10C03C7F897
S31508023EA0803097F8872097F87F309A422CBF0023F4
S31508023EB00123DBB2002BD5D14FF00003FB66FB6E64
S31508023EC0002B0CDABB681B68002B08D0BB681B6882
S31508023ED018462CF0BDFEBB684FF000021A60FC6E55
S31508023EE007F150031846FDF7F7FB2346184607F174
S31508023EF08C07BD4690BD00BF80B588B002AF78601A
S31508023F0039603B683B617B685B6A7B6179697B697F
S31508023F109B6807F10802084611461A46FFF7C8FECB
S31508023F2003466FEA03034FEAD373DBB2002B08D0CA
S31508023F30BB687A695268C3F86821BB68DB69FB60AB
S31508023F4002E04FF0FF33FB603B691B6807F10C0286
S31508023F5000924FF004020192184679684FF0010266
S31508023F604FF0000303F0E0F84FF00103184607F19B
S31508023F701807BD4680BD00BF80B588B002AF78601D
S31508023F8039603B687B614FF000033B614FF00003E9
S31508023F90FB6007F1100207F10C03786911461A460D
S31508023FA0FDF738FE03464FEAD373DBB2002B0AD07D
S31508023FB07B691B68184679684FF000024FF00003C8
S31508023FC003F01AF90DE07B691B683969FA680091F2
S31508023FD00192184679684FF001024FF0000303F088
S31508023FE0A3F83B69184624F087FB4FF001031846ED
S31508023FF007F11807BD4680BD80B588B002AF786064
S3150802400039603B683B617B685B6A7B614FF0000302
S31508024010FB604FF00003BB607B69196807F10C026D
S3150802402007F108033869FDF775FE03464FEAD373AD
S31508024030DBB2002B0AD03B691B68184679684FF039
S3150802404000024FF0000303F0D7F80DE03B691B6846
S31508024050F968BA6800910192184679684FF0010228
S315080240604FF0000303F060F8FB68184624F044FB9F
S315080240704FF00103184607F11807BD4680BD00BF79
S3150802408080B588B002AF786039603B68FB607B68B0
S315080240905B6A3B613B691B681846FDF76FFD034681
S315080240A07B617B69002B06D078692CF0D1FD4FF035
S315080240B00103BB6002E04FF00003BB60FB681B68AC
S315080240C007F1080200924FF0040201921846796835
S315080240D04FF001024FF0000303F026F84FF00103F8
S315080240E0184607F11807BD4680BD00BF80B586B0E1
S315080240F000AF786039603B68FB607B685B6A3B614E
S315080241003B691B681846FDF739FD03467B617B69E7
S31508024110002B02D078692CF051FDFB681A687B697E
S31508024120002B0CBF00230123DBB2104679681A461E
S315080241304FF0000303F060F84FF00103184607F149
S315080241401807BD4680BD00BF80B586B000AF78604F
S3150802415039603B68FB607B685B6A3B613B691B684D
S315080241601846FDF70BFD03467B617B69002B02D0DF
S3150802417078692CF047FDFB681A687B69002B0CBF2F
S3150802418000230123DBB2104679681A464FF0000372
S3150802419003F032F84FF00103184607F11807BD4637
S315080241A080BD00BF90B591B002AF786039603B68B8
S315080241B0FB607B685B6A3B613B691B681846FDF7D7
S315080241C0DDFC03467B614FF00003FB777B69002B1E
S315080241D002D14FF00003ACE07B69D3F870317B6102
S315080241E07B6903F10C031846FDF7C0F903463B62E7
S315080241F028E03B6A1B69BB62BB6A002B01D107F048
S315080242000DF9BB6A03F13003184624F04FFC034646
S31508024210FB62FB6A002B24D0FB6ADC6842F2283078
S31508024220C2F200001BF00CFB03469C4214BF00239B
S315080242300123FB77FB7F002B02D0BB6ABB6111E02F
S315080242407B6A3B623B6A1846FDF784F903467B6242
S315080242507B6A002B0CBF00230123DBB2002BC8D1DB
S3150802426000E000BFFB7F83F00103DBB2002B4CD0DA
S315080242704FF00C0024F018FA0346BB6142F22830CC
S31508024280C2F20000B9692D4A19F052FA03466FEADA
S3150802429003034FEAD373DBB2002B36D0B869FDF7B6
S315080242A00FF903463B637869FDF766FA03467B63B3
S315080242B03B6B03F118031846FDF7A6F803467A6B1B
S315080242C01A607A693B6B03F124031046396B1A4666
S315080242D024F0B2FB03466FEA03034FEAD373DBB259
S315080242E0002B12D042F22830C2F200001BF0A8FAC4
S315080242F003461A463B6B03F130031046396B1A46DE
S3150802430024F09AFB4FF00103FB77FB7F83F001034E
S31508024310DBB2002B02D04FF000030AE04FF0000395
S315080243200093F8687968BA694FF00003FFF7AEFAA6
S315080243300346184607F13C07BD4690BD1C260020D9
S3150802434080B588B002AF786039603B68BB607B682D
S315080243505B6AFB60FB681B681846FDF70FFC0346A1
S315080243603B614FF000037B613B69002B03D03B693D
S3150802437003F134037B614FF000030093B868796850
S315080243807A694FF00003FFF781FA0346184607F1E8
S315080243901807BD4680BD00BF80B588B000AF7860FB
S315080243A039603B68FB607B685B6A3B614FF00003E0
S315080243B0FB723B6919683B695A6807F10B03F8688F
S315080243C0FFF71EFC03467B617B69002B0CBF0023AB
S315080243D00123DBB2002B44D07B69DB68BB61BB6976
S315080243E0D3F81831002B01D107F018F8BB69D3F8B6
S315080243F0183103F1FF3213464FEAC30313444FEA57
S31508024400830303F14003BA691344FB61BB6903F1F1
S3150802441034031846FDF754F80246FB695B689A426C
S315080244200CBF00230123DBB2002B01D006F0F6FFF6
S31508024430FB6993F820305BB2002B01DB06F0EEFF36
S31508024440FB697A69DA61FB6993F8203043F0400325
S31508024450DAB2FB6983F82020F8694FF00401FDF708
S3150802446049F94FF00103184607F12007BD4680BDFA
S3150802447080B58EB002AF786039603B687B627B6834
S315080244805B6ABB624FF00003FB73BB6A1968BB6ABF
S315080244905A6807F10F03786AFFF7B2FB0346FB6215
S315080244A0FB6A002B0CBF00230123DBB2002B61D071
S315080244B0FB7B002B33D0FB6A9B6C1B693B61FB6A57
S315080244C09B6CDB691A46FB6A9B6C1B6AC3EB02038D
S315080244D07B61FB6A9B6C9B695B7ABB61FB6A9B6C23
S315080244E09B699B7AFB61FB6A1B691A46FB6A9B6C92
S315080244F09B68C3EB02034FEAA30213464FEA830300
S3150802450013444FEA03110B444FEA03210B444FEAC3
S3150802451003410B444FEA430313443B6217E0FB6A29
S315080245209B6A3B61FB6ADB691A46FB6A9B6BC3EBB8
S3150802453002037B61FB6A1B6B5B7ABB61FB6A1B6BC3
S315080245409B7AFB61F86AFDF793F803463B627B6A3E
S315080245501B6807F1100200924FF0140201921846E6
S3150802456079684FF001024FF0000302F0DDFD4FF0CB
S3150802457001030BE07B6A1B68184679684FF0000254
S315080245804FF0000302F038FE4FF00103184607F118
S315080245903007BD4680BD00BF80B586B000AF7860E3
S315080245A039603B68FB607B685B6A3B614FF00003DE
S315080245B0FB723B6919683B695A6807F10B03F8688D
S315080245C0FFF71EFB03467B617B69002B0CBF0023AA
S315080245D00123DBB2002B37D0FB7A002B0CD0FB6809
S315080245E01B68184679684FF000024FF0000302F084
S315080245F003FE4FF0010333E07B699A6B3B699B68C4
S315080246001A447B69DA617B6919693B69DA68134678
S315080246104FEA430313444FEA830301EB03027B6920
S31508024620DA637B695B6A23F000527B695A62FB682C
S315080246301B68184679684FF001024FF0000302F032
S31508024640DBFD4FF001030BE0FB681B68184679682F
S315080246504FF000024FF0000302F0CEFD4FF00103C7
S31508024660184607F11807BD4680BD00BF80B58AB057
S3150802467000AF78604FF4C0233B6207F1080318467F
S3150802468079682EF019FD03464FEAD373DBB2002B85
S3150802469002D04FF0000318E07B69DB7B1A4613460B
S315080246A04FEA430313444FEAC30242F2C073C0F609
S315080246B0080313447B627B6A1B6803F4C023B3F5C1
S315080246C0C02F14BF00230123DBB2184607F12807BF
S315080246D0BD4680BD80B588B000AFF8600B467A60EB
S315080246E0FB724FF00003BB77FB68002B00F0928049
S315080246F0F868FCF7B3FD0346FB77FB7A43F480338D
S3150802470007F1100210461946FCF7CCFD07F1100313
S315080247101846FCF779FE0346184679684FF00802F0
S3150802472054F098FEFA7FFB7A9A4203D14FF00103BE
S31508024730BB775DE0FB7A192B0FD1FB7F102B08D1D3
S31508024740F868FCF7BDFE0346002B02D14FF00103C1
S3150802475001E04FF00003BB774AE0FB7A102B11D138
S3150802476007F110031846FCF7ABFE0346002B05D1EA
S31508024770FB7F192B02D14FF0010301E04FF0000332
S31508024780BB7735E0F97F42F2C072C0F608020B46E3
S315080247904FEA43030B444FEAC30313441B6803F46B
S315080247A00033002B01D106F039FEF97F42F2C072BE
S315080247B0C0F608020B464FEA43030B444FEAC3030B
S315080247C013445B79042B13D1F97A42F2C072C0F60C
S315080247D008020B464FEA43030B444FEAC30313444A
S315080247E05B79032B04D8FB7FFB724FF00103BB777F
S315080247F0BB7F002B0ED0FB7AF8681946FCF760FDE2
S31508024800F868FCF701FE0346184679684FF0080275
S3150802481054F020FEBB7F184607F12007BD4680BD2F
S3150802482080B58AB000AF786042F22833C2F200033C
S31508024830D3F8B4317B627B6A07F11802104619462F
S31508024840FCF796FD07F10C0207F118031046194604
S315080248507A681DF09DFC03466FEA03034FEAD37399
S31508024860DBB2002B06D07B68786A1946FCF7A4FEF1
S31508024870034601E04FF00003184607F12807BD4634
S3150802488080BD00BF90B58BB000AF786039603B68D9
S315080248907B617B685B6ABB614FF00103FB77BB698F
S315080248A01B68002B08D142F22833C2F200034FF0EC
S315080248B00002C3F8B4214FE0BB691B6807F108027E
S315080248C0104619462D4A20F069F903466FEA030392
S315080248D04FEAD373DBB2002B3BD042F22833C2F243
S315080248E00003D3F8B4313B6207F108031846FCF714
S315080248F0F3FD03467B623B6A002B22D0786AFCF7FB
S315080249004DFE0446386AFCF749FE01467B6ADA68B8
S315080249103B6ADB689A4208D27B6ADA6813464FEA30
S31508024920430313444FEA830307E03B6ADA681346F4
S315080249304FEA430313444FEA830320461A4654F0C8
S3150802494089FD42F22833C2F200037A6AC3F8B42117
S3150802495002E04FF00003FB777B691A68FB7F10467B
S3150802496079681A464FF0000302F046FC4FF000033E
S31508024970184607F12C07BD4690BD00BF2825002022
S3150802498080B5A6B002AF786039603B68BB667B68C3
S315080249905B6AFB664FF0000387F86730FB6E19689F
S315080249A0FB6E5A6807F16703B86EFFF729F90346E3
S315080249B03B673B6F002B0CBF00230123DBB2002BA6
S315080249C000F0548197F86730002B04D03B6F9B6C3C
S315080249D003F1100302E03B6F03F12803FB67FB6E4A
S315080249E09B68012B04D0012B12D3022B20D04FE057
S315080249F097F86730002B03D03B6F9B6C5B6801E02E
S31508024A003B6F5B697B67FB6F9B685B7ABB6742E0C0
S31508024A1097F86730002B03D03B6F9B6C1B6801E04D
S31508024A203B6F9B697B67FB6F9B689B7ABB6732E030
S31508024A3097F86730002B03D03B6F9B6C9B6801E0AD
S31508024A403B6F1B697B6797F86730002B1AD03B6F61
S31508024A501B691A463B6F9B6C9B68C3EB02034FEAC2
S31508024A60A30213464FEA830313444FEA03110B4486
S31508024A704FEA03210B444FEA03410B444FEA43032F
S31508024A80134403E0386FFCF7F3FD0346BB6702E005
S31508024A904FF00003ECE0FB6EDA68BB6F9A4202D372
S31508024AA04FF00003E4E0FB6EDA6813464FEA43036D
S31508024AB013444FEA83037A6F1344C7F880304FF0E2
S31508024AC00003C7F884304FF00003C7F88830FB6E3E
S31508024AD09B68022B09D0D7F88000FFF7C7FD03466B
S31508024AE0002B02D04FF0010301E04FF00003002B28
S31508024AF000F0AF80FB6EDB68C7F88C30FB6E9B68F4
S31508024B00012B23D1FB6F5A68FB6F9B6807F13401AF
S31508024B10084611461A462DF06BFAD7F88C3003F17F
S31508024B200103C7F88C307B6C03F02003002B19D0E5
S31508024B30D7F88C30002B02D14FF0000398E0D7F853
S31508024B408C3003F1FF33C7F88C300CE0FB6F5A68E0
S31508024B50FB6F9B6807F13401084611461A462DF089
S31508024B6085FA00E000BF07F1340207F12403104674
S31508024B7019462DF0BFFAD7F88C30002B0CBF00234C
S31508024B800123DBB2D7F88C2002F1FF32C7F88C205A
S31508024B90002BE8D1D7F88000FCF760FB03461946DC
S31508024BA042F2C072C0F608020B464FEA43030B44B0
S31508024BB04FEAC30313445B79042B13D197F82C30BD
S31508024BC0194642F2C072C0F608020B464FEA430380
S31508024BD00B444FEAC30313445B79032B02D84FF005
S31508024BE0010301E04FF00003002B16D007F158032A
S31508024BF01846D7F88010FCF78BFC97F82C3007F18B
S31508024C00580210461946FCF75BFBD7F88030C7F8FE
S31508024C10843007F15803C7F8803007F10C0207F110
S31508024C20240303F10C03104619462EF049F9BB6911
S31508024C301846FCF7AFF90346002B0AD007F14C03D6
S31508024C4007F1100207CA83E8070007F14C03C7F801
S31508024C508830D7F888300093B86E7968D7F88020FC
S31508024C60D7F88430FEF712FE034601E04FF0000340
S31508024C70184607F19007BD4680BD00BF90B59FB0A4
S31508024C8002AF786039603B683B657B685B6A7B6527
S31508024C907B6D1B687B644FF00003BB654FF0000316
S31508024CA0FB657B6C002B5DD07B6D5B68002B59D056
S31508024CB07B6C07F12002104619462EF0FDF90346D1
S31508024CC04FEAD373DBB2002B02D04FF00003F2E0B7
S31508024CD007F1140307F1240207CA83E807007B6D6C
S31508024CE05B6803F1FF333B6600E000BFFB695B7D4F
S31508024CF07B6607F114031846FCF77EFC03465B88BD
S31508024D00BB66BA6E7B6EC3EB0203FB663A6EFB6E3C
S31508024D109A4219D33A6EFB6EC3EB02033B667B6D6E
S31508024D2003F1080407F114031846FCF77BF9034656
S31508024D301A46FB695B8A19463B6E0B4420461146A6
S31508024D401A46FCF78DF90DE007F1140318462DF003
S31508024D502FFE034683F00103DBB2002BC5D04FF0CA
S31508024D600003A8E07B6D03F1080207F10803386D1A
S31508024D7011461A46FEF7E4FE034683F00103DBB248
S31508024D80002B02D04FF0000395E07B6C002B08D174
S31508024D907B6D03F10803184618F0A0FA03467B64F4
S31508024DA05CE07B6D5B68002B09D107F108031846A6
S31508024DB0FCF736FC03461B881A467B6D5A607B6DE8
S31508024DC05B68002B02D14FF0000374E07B6C184637
S31508024DD0FCF744FA0346A3F11103012B0FD97A6CA7
S31508024DE007F14403104619461DF042F803464FEAF6
S31508024DF0D373DBB2002B03D04FF000035BE000BF96
S31508024E007B6C1846FCF72AFA0346A3F10D03012B1D
S31508024E1019D87B6C1846FCF705FB03461846FCF7BF
S31508024E20E9F902460B46C7E9122307F1380207F1E8
S31508024E30480310461946FCF783FA7B6CBB6507F1F3
S31508024E4038037B640AE0796C7B6D5A6813464FEA2D
S31508024E50430313444FEA83030B447B647B6C184673
S31508024E60FFF704FC0346002B1BD007F1200207F1CB
S31508024E700803104619462EF0BBF803466FEA0303E9
S31508024E804FEAD373DBB2002B0BD0FB6A1846FCF74A
S31508024E9081F80346002B04D007F1200303F104032B
S31508024EA0FB657B6CFA6D0092386D79681A46BB6DA4
S31508024EB0FEF7ECFC0346184607F17407BD4690BD9B
S31508024EC080B594B002AF786039603B683B637B6813
S31508024ED05B6A7B634FF00003BB634FF00003FB631F
S31508024EE04FF000033B647B6B1B6807F124021046F4
S31508024EF01946FCF73DFA7B6B5B6807F1180107F167
S31508024F002402084611461A461DF042F903466FEA7C
S31508024F1003034FEAD373DBB2002B4AD007F1180317
S31508024F201846FCF7B5FA03467B647B6C9B7C002B20
S31508024F3008D07B6B5B68786C1946FCF73DFB034629
S31508024F40BB6316E007F1240207F118031046194657
S31508024F501DF0B2F903464FEAD373DBB2002B02D037
S31508024F604FF000032EE007F12403BB634FF0FF3333
S31508024F70FB63B86BFFF77AFB0346002B19D07B6CF1
S31508024F801846FCF777FA034603F1040307F10C0205
S31508024F90104619462DF072FB0346002B09D07B6991
S31508024FA01846FBF7F7FF0346002B02D007F10C035E
S31508024FB03B643B6C0093386B7968BA6BFB6BFEF704
S31508024FC065FC0346184607F14807BD4680BD00BF83
S31508024FD080B588B002AF786039603B68FB607B6851
S31508024FE05B6A3B613B691B687B614FF00003009378
S31508024FF0F86879687A694FF00003FEF747FC0346BA
S31508025000184607F11807BD4680BD00BF80B588B0AF
S3150802501002AF786039603B68FB607B685B6A3B611C
S315080250203B691B681846FFF7FBFB03467B614FF09B
S3150802503000030093F86879687A694FF00003FEF76F
S3150802504025FC0346184607F11807BD4680BD00BF72
S3150802505090B587B000AF786039603B68FB607B68C3
S315080250605B6A3B613B691B687B61FB681C683B6941
S315080250705B68DAB23B6903F10803786911461A4696
S31508025080FFF728FB0346204679681A464FF00003C5
S3150802509002F0B2F84FF00103184607F11C07BD46A5
S315080250A090BD00BF80B58CB000AF786039603B68B0
S315080250B03B627B685B6A7B627B6A1B68BB624FF0FA
S315080250C0000387F82F307B6A1B6807F11402104623
S315080250D01946FCF74DF9BB6A002B50D0BB6A9B7C7C
S315080250E0002B4CD17B6A5B6807F1080107F11402B1
S315080250F0084611461A461DF04BF803466FEA0303A3
S315080251004FEAD373DBB2002B39D007F1140207F149
S315080251100803104619461DF0CFF803466FEA030343
S315080251204FEAD373DBB2002B29D007F114031846D2
S31508025130FCF794F803461A467B6A03F1080307F15B
S315080251401401084611461A46FFF7C4FA0346002B0D
S3150802515015D007F1140207F10803104619464FF055
S3150802516000021DF0B5F903466FEA03034FEAD3734B
S31508025170DBB2002B03D04FF0010387F82F303B6ACE
S315080251801A6897F82F30104679681A464FF00003C6
S3150802519002F032F84FF00103184607F13007BD4610
S315080251A080BD00BF80B588B002AF786039603B68C1
S315080251B0BB607B685B6AFB604FF000033B61FB6880
S315080251C01B681846FFF72CFB03467B617B69002B9D
S315080251D014D0FB6803F1040342F22830C2F200003D
S315080251E079691A4618F0A4FA03466FEA03034FEAE6
S315080251F0D373DBB2002B01D07B693B614FF000030E
S315080252000093B86879683A694FF00003FEF73EFBE7
S315080252100346184607F11807BD4680BD80B58AB011
S3150802522002AF786039603B68BB607B685B6AFB608B
S315080252304FF000033B61FB681B681846FFF7F0FA5C
S3150802524003467B617B69002B21D0FB685B68786922
S31508025250194621F0D1FD0346BB61BB69002B16D066
S31508025260BB691846FCF7ECF80346FB61FB685B680A
S31508025270F8694FF020011A4654F0BEF9FB685A68DD
S31508025280FB6913444FF000021A707B693B614FF0C9
S3150802529000030093B86879683A694FF00003FEF78D
S315080252A0F5FA0346184607F12007BD4680BD00BF3A
S315080252B080B58AB002AF786039603B683B617B682B
S315080252C05B6A7B614FF00003BB617B691B6818460A
S315080252D0FFF7A6FA0346FB61FB69002B1CD04FF0C9
S315080252E002033B817B699B689BB27B817B695B6816
S315080252F0FB607B69DA6807F10803F86911461A4602
S315080253001FF0CEFB03466FEA03034FEAD373DBB201
S31508025310002B01D0FB69BB614FF00003009338698B
S315080253207968BA694FF00003FEF7B0FA03461846E1
S3150802533007F12007BD4680BD80B584B000AF78600E
S3150802534039607B68002B08D07868FBF787FF03462D
S31508025350142B02D14FF0010301E04FF00003002B9A
S3150802536004D07868FCF7ACF803467B603B687A6839
S315080253701A607B68002B0BD07868FBF76FFF034631
S31508025380102B08D17868FCF79BF80346002B02D14C
S315080253904FF0010301E04FF00003002B0CD03B68ED
S315080253A04FF001021A713B684FF000025A713B68CE
S315080253B04FF001029A7161E03B6803F1080318464F
S315080253C079682DF079FE0346FB60FB684FEAD373D2
S315080253D0DBB2002B55D13B684FF000021A71786890
S315080253E0FBF73CFF0346102B0CD17868FCF768F8EC
S315080253F003461846FBF794FF0346002B02D04FF0EC
S31508025400010301E04FF000033A6853713B689B6859
S3150802541003F06003202B01D0402B04D13B684FF0E8
S3150802542001029A712AE03B689B6803F01F03102B5E
S3150802543020D84FF0010202FA03F240F20213C0F238
S31508025440010302EA0303002B14D03B685B79002BA5
S3150802545008D13B68DA6842F2E843C2F200039B6B62
S315080254609A4202D14FF0010301E04FF000033A6875
S31508025470937103E03B684FF001029A714FF0000303
S31508025480FB60FB68184607F11007BD4680BD00BFE2
S3150802549090B5A1B000AF7860396007F1700318467D
S315080254A04FF00001FBF764FF07F1600207F1700392
S315080254B010461946FCF700F907F1340378681946CD
S315080254C0FFF73AFF0346FB67FB6F4FEAD373DBB27C
S315080254D0002B40F0AF8007F1080338681946FFF73A
S315080254E02BFF0346FB67FB6F4FEAD373DBB2002B36
